:020000040000FA
:0400000080312628FD
:100008007E1480314E01161C0A280B2813280C1C5C
:100018000E280F2813288031D72080312428161E57
:100028001628172824280C1E1A281B2824284001C3
:1000380080308D068031BD20803124282428242852
:100048007E100900803128287E1040018031C728A1
:1000580040019C019B0198019D0199019A010F3073
:100068009600FF309700FF3092007F309300FF30FA
:100078009400FF309500FF307E01D900FF30CE009C
:100088007E30C3000730E400FF307C01D000BF3071
:100098007E01B800DA017C01D1017E01E501403022
:1000A800C400B901CF01E6017C01D2017E01BA0189
:1000B800C501D001DB01FF30BB00FF30C600FF30B7
:1000C800D100FF30DC000730E700FF307C01D300AF
:1000D8007E013F133E173D13E730F4000030F50072
:1000E8008031DD2080314E01161608307D019000E8
:1000F8000800720873040319822883288928730862
:100108008A0072080A00803189287E013F1308009E
:100118008031CF20803180312C2080318031B32054
:10012800803180319920803108004E010C100B106D
:10013800E830F4000030F5008031E22080314E01D3
:1001480016140800700871040319AB28AC28B228EB
:1001580071088A0070080A008031B22808006230ED
:1001680051018D008F01910105309300900192019A
:1001780008007E013F1FC128C228C62880317D2083
:100188008031C628080080318C2080318B170B17EE
:10019800CC28803126284F019601970198019901B2
:1001A8009A019B0108004E010C108031A620803175
:1001B80008007508F3007408F20008007508F100DB
:0A01C8007408F000080008000800A9
:020000040001F9
:0A000E00EC3FFF3F9F3FFF3FFF3F25
:00000001FF
